{
  "transactions": [
    {
      "hash": "0xbd4a45abcb455b997bdae94809aacef69e1b4b6288b8ce75fdc43075ed6cce47",
      "transactionType": "CALL",
      "contractName": null,
      "contractAddress": "0xabc2e4f0e598dff57f95aece848bed7f669a6dbc",
      "function": "mint(address,uint256)",
      "arguments": [
        "0x1279874A02eEBA3fBEAe83BA7fbe3f3Aa60bfF3e",
        "4000000000000000000"
      ],
      "transaction": {
        "from": "0x1279874a02eeba3fbeae83ba7fbe3f3aa60bff3e",
        "to": "0xabc2e4f0e598dff57f95aece848bed7f669a6dbc",
        "gas": "0x21490",
        "value": "0x0",
        "input": "0x40c10f190000000000000000000000001279874a02eeba3fbeae83ba7fbe3f3aa60bff3e0000000000000000000000000000000000000000000000003782dace9d900000",
        "nonce": "0x94",
        "chainId": "0x66eee"
      },
      "additionalContracts": [],
      "isFixedGasLimit": false
    }
  ],
  "receipts": [
    {
      "status": "0x1",
      "cumulativeGasUsed": "0x1501b",
      "logs": [
        {
          "address": "0xabc2e4f0e598dff57f95aece848bed7f669a6dbc",
          "topics": [
            "0xddf252ad1be2c89b69c2b068fc378daa952ba7f163c4a11628f55a4df523b3ef",
            "0x0000000000000000000000000000000000000000000000000000000000000000",
            "0x0000000000000000000000001279874a02eeba3fbeae83ba7fbe3f3aa60bff3e"
          ],
          "data": "0x0000000000000000000000000000000000000000000000003782dace9d900000",
          "blockHash": "0x46f5e0e71b3926273167cd388b7f910a1af9b00521e5c48b43715b34f8e97f35",
          "blockNumber": "0x4facda4",
          "transactionHash": "0xbd4a45abcb455b997bdae94809aacef69e1b4b6288b8ce75fdc43075ed6cce47",
          "transactionIndex": "0x1",
          "logIndex": "0x0",
          "removed": false
        }
      ],
      "logsBloom": "0x00000000000000000000000000000000000000000000040000000000000000000000000000000000000000000000000000000000000000000000000000000000000000000000000000000008000000000000000000000000000000000000000000000000020000000000000000000800040000000000000000000010000000001000000000000000000000000000000000000000000000000000000000000000000000000000000000000000000000000000200000000000000000000000000000000002000000000000000000000000000000000000200000000000000020000000000010000000000000000000000000000000000000000000000000000000",
      "type": "0x2",
      "transactionHash": "0xbd4a45abcb455b997bdae94809aacef69e1b4b6288b8ce75fdc43075ed6cce47",
      "transactionIndex": "0x1",
      "blockHash": "0x46f5e0e71b3926273167cd388b7f910a1af9b00521e5c48b43715b34f8e97f35",
      "blockNumber": "0x4facda4",
      "gasUsed": "0x1501b",
      "effectiveGasPrice": "0x5f5e100",
      "from": "0x1279874a02eeba3fbeae83ba7fbe3f3aa60bff3e",
      "to": "0xabc2e4f0e598dff57f95aece848bed7f669a6dbc",
      "contractAddress": null,
      "gasUsedForL1": "0x3c1f",
      "l1BlockNumber": "0x66f8bb"
    }
  ],
  "libraries": [],
  "pending": [],
  "returns": {},
  "timestamp": 1727141785,
  "chain": 421614,
  "commit": "e1bf4c0"
}