{
  "transactions": [
    {
      "hash": "0x813d7fa7e9db9cf936d288dee2b06fbb90757886406d02eb96e20168c28bfd2f",
      "transactionType": "CALL",
      "contractName": null,
      "contractAddress": "0xabc2e4f0e598dff57f95aece848bed7f669a6dbc",
      "function": "mint(address,uint256)",
      "arguments": [
        "0x1279874A02eEBA3fBEAe83BA7fbe3f3Aa60bfF3e",
        "4000000000000000000"
      ],
      "transaction": {
        "from": "0x1279874a02eeba3fbeae83ba7fbe3f3aa60bff3e",
        "to": "0xabc2e4f0e598dff57f95aece848bed7f669a6dbc",
        "gas": "0xee6c",
        "value": "0x0",
        "input": "0x40c10f190000000000000000000000001279874a02eeba3fbeae83ba7fbe3f3aa60bff3e0000000000000000000000000000000000000000000000003782dace9d900000",
        "nonce": "0x9f",
        "chainId": "0x66eee"
      },
      "additionalContracts": [],
      "isFixedGasLimit": false
    }
  ],
  "receipts": [
    {
      "status": "0x1",
      "cumulativeGasUsed": "0xad13",
      "logs": [
        {
          "address": "0xabc2e4f0e598dff57f95aece848bed7f669a6dbc",
          "topics": [
            "0xddf252ad1be2c89b69c2b068fc378daa952ba7f163c4a11628f55a4df523b3ef",
            "0x0000000000000000000000000000000000000000000000000000000000000000",
            "0x0000000000000000000000001279874a02eeba3fbeae83ba7fbe3f3aa60bff3e"
          ],
          "data": "0x0000000000000000000000000000000000000000000000003782dace9d900000",
          "blockHash": "0x0c865c180265632252534ea9bd29ebb238ba05a283598755822579fee0e43376",
          "blockNumber": "0x4fed188",
          "transactionHash": "0x813d7fa7e9db9cf936d288dee2b06fbb90757886406d02eb96e20168c28bfd2f",
          "transactionIndex": "0x1",
          "logIndex": "0x0",
          "removed": false
        }
      ],
      "logsBloom": "0x00000000000000000000000000000000000000000000040000000000000000000000000000000000000000000000000000000000000000000000000000000000000000000000000000000008000000000000000000000000000000000000000000000000020000000000000000000800040000000000000000000010000000001000000000000000000000000000000000000000000000000000000000000000000000000000000000000000000000000000200000000000000000000000000000000002000000000000000000000000000000000000200000000000000020000000000010000000000000000000000000000000000000000000000000000000",
      "type": "0x2",
      "transactionHash": "0x813d7fa7e9db9cf936d288dee2b06fbb90757886406d02eb96e20168c28bfd2f",
      "transactionIndex": "0x1",
      "blockHash": "0x0c865c180265632252534ea9bd29ebb238ba05a283598755822579fee0e43376",
      "blockNumber": "0x4fed188",
      "gasUsed": "0xad13",
      "effectiveGasPrice": "0x5f5e100",
      "from": "0x1279874a02eeba3fbeae83ba7fbe3f3aa60bff3e",
      "to": "0xabc2e4f0e598dff57f95aece848bed7f669a6dbc",
      "contractAddress": null,
      "gasUsedForL1": "0x1eaf",
      "l1BlockNumber": "0x670cea"
    }
  ],
  "libraries": [],
  "pending": [],
  "returns": {},
  "timestamp": 1727216491,
  "chain": 421614,
  "commit": "8ae2dc4"
}