{
  "transactions": [
    {
      "hash": "0x65750dbcc73c5626530e8a143b3e37862d0e3c54ca3a7e431cd8d9afb350b653",
      "transactionType": "CALL",
      "contractName": null,
      "contractAddress": "0x8cd532eb2e94d3a055a740e7601605bccb5c5db1",
      "function": "mint(address,uint256)",
      "arguments": [
        "0x1279874A02eEBA3fBEAe83BA7fbe3f3Aa60bfF3e",
        "4000000000000000000"
      ],
      "transaction": {
        "from": "0x1279874a02eeba3fbeae83ba7fbe3f3aa60bff3e",
        "to": "0x8cd532eb2e94d3a055a740e7601605bccb5c5db1",
        "gas": "0x199b4",
        "value": "0x0",
        "input": "0x40c10f190000000000000000000000001279874a02eeba3fbeae83ba7fbe3f3aa60bff3e0000000000000000000000000000000000000000000000003782dace9d900000",
        "nonce": "0xa2",
        "chainId": "0x66eee"
      },
      "additionalContracts": [],
      "isFixedGasLimit": false
    }
  ],
  "receipts": [
    {
      "status": "0x1",
      "cumulativeGasUsed": "0x2cf13",
      "logs": [
        {
          "address": "0x8cd532eb2e94d3a055a740e7601605bccb5c5db1",
          "topics": [
            "0xddf252ad1be2c89b69c2b068fc378daa952ba7f163c4a11628f55a4df523b3ef",
            "0x0000000000000000000000000000000000000000000000000000000000000000",
            "0x0000000000000000000000001279874a02eeba3fbeae83ba7fbe3f3aa60bff3e"
          ],
          "data": "0x0000000000000000000000000000000000000000000000003782dace9d900000",
          "blockHash": "0xee8fa1c5c247ef0f3371a3e74d468d90b405f319c9d702de5c4081b58ebcf012",
          "blockNumber": "0x4fed6c9",
          "transactionHash": "0x65750dbcc73c5626530e8a143b3e37862d0e3c54ca3a7e431cd8d9afb350b653",
          "transactionIndex": "0x2",
          "logIndex": "0x3",
          "removed": false
        }
      ],
      "logsBloom": "0x00000000000000000000000000000000000000000000000000000000000000000000000000000000000000000000000000000000000000000000000002000000000000000000000000000008000000000000000000000000000000000000000000000000020000000000000000000800040000000000000000000010000000000000000000000000000000000000000000000000000000000000080000000000000000000000000000000000000000000000200000000000000000000000000000000002000000000000000000000000000000000000200000000000000020000000000000000000000000000000000002000000000000000000000000000000",
      "type": "0x2",
      "transactionHash": "0x65750dbcc73c5626530e8a143b3e37862d0e3c54ca3a7e431cd8d9afb350b653",
      "transactionIndex": "0x2",
      "blockHash": "0xee8fa1c5c247ef0f3371a3e74d468d90b405f319c9d702de5c4081b58ebcf012",
      "blockNumber": "0x4fed6c9",
      "gasUsed": "0x12fd4",
      "effectiveGasPrice": "0x5f5e100",
      "from": "0x1279874a02eeba3fbeae83ba7fbe3f3aa60bff3e",
      "to": "0x8cd532eb2e94d3a055a740e7601605bccb5c5db1",
      "contractAddress": null,
      "gasUsedForL1": "0x1bd8",
      "l1BlockNumber": "0x670d05"
    }
  ],
  "libraries": [],
  "pending": [],
  "returns": {},
  "timestamp": 1727216860,
  "chain": 421614,
  "commit": "8ae2dc4"
}