{
  "transactions": [
    {
      "hash": "0x42f68e7b19dabb5468b5a143ac62ecac201e33a736c3c00b4338709f6e0f7fc4",
      "transactionType": "CALL",
      "contractName": null,
      "contractAddress": "0xabc2e4f0e598dff57f95aece848bed7f669a6dbc",
      "function": "mint(address,uint256)",
      "arguments": [
        "0x1279874A02eEBA3fBEAe83BA7fbe3f3Aa60bfF3e",
        "4000000000000000000"
      ],
      "transaction": {
        "from": "0x1279874a02eeba3fbeae83ba7fbe3f3aa60bff3e",
        "to": "0xabc2e4f0e598dff57f95aece848bed7f669a6dbc",
        "gas": "0xefd8",
        "value": "0x0",
        "input": "0x40c10f190000000000000000000000001279874a02eeba3fbeae83ba7fbe3f3aa60bff3e0000000000000000000000000000000000000000000000003782dace9d900000",
        "nonce": "0x9e",
        "chainId": "0x66eee"
      },
      "additionalContracts": [],
      "isFixedGasLimit": false
    }
  ],
  "receipts": [
    {
      "status": "0x1",
      "cumulativeGasUsed": "0xadec",
      "logs": [
        {
          "address": "0xabc2e4f0e598dff57f95aece848bed7f669a6dbc",
          "topics": [
            "0xddf252ad1be2c89b69c2b068fc378daa952ba7f163c4a11628f55a4df523b3ef",
            "0x0000000000000000000000000000000000000000000000000000000000000000",
            "0x0000000000000000000000001279874a02eeba3fbeae83ba7fbe3f3aa60bff3e"
          ],
          "data": "0x0000000000000000000000000000000000000000000000003782dace9d900000",
          "blockHash": "0xc1ef651004d85c2832a6bdde450dba09a3a02af3c6162e3d7b466da6b437a83f",
          "blockNumber": "0x4fecb59",
          "transactionHash": "0x42f68e7b19dabb5468b5a143ac62ecac201e33a736c3c00b4338709f6e0f7fc4",
          "transactionIndex": "0x1",
          "logIndex": "0x0",
          "removed": false
        }
      ],
      "logsBloom": "0x00000000000000000000000000000000000000000000040000000000000000000000000000000000000000000000000000000000000000000000000000000000000000000000000000000008000000000000000000000000000000000000000000000000020000000000000000000800040000000000000000000010000000001000000000000000000000000000000000000000000000000000000000000000000000000000000000000000000000000000200000000000000000000000000000000002000000000000000000000000000000000000200000000000000020000000000010000000000000000000000000000000000000000000000000000000",
      "type": "0x2",
      "transactionHash": "0x42f68e7b19dabb5468b5a143ac62ecac201e33a736c3c00b4338709f6e0f7fc4",
      "transactionIndex": "0x1",
      "blockHash": "0xc1ef651004d85c2832a6bdde450dba09a3a02af3c6162e3d7b466da6b437a83f",
      "blockNumber": "0x4fecb59",
      "gasUsed": "0xadec",
      "effectiveGasPrice": "0x5f5e100",
      "from": "0x1279874a02eeba3fbeae83ba7fbe3f3aa60bff3e",
      "to": "0xabc2e4f0e598dff57f95aece848bed7f669a6dbc",
      "contractAddress": null,
      "gasUsedForL1": "0x1f88",
      "l1BlockNumber": "0x670ccd"
    }
  ],
  "libraries": [],
  "pending": [],
  "returns": {},
  "timestamp": 1727216058,
  "chain": 421614,
  "commit": "8ae2dc4"
}