{
  "transactions": [
    {
      "hash": "0x794702fef149af8a3a9861c7b07e1b14b50c571610c7dc1d7dc04a22d10d5b8f",
      "transactionType": "CALL",
      "contractName": null,
      "contractAddress": "0x7adf37689219d7648f3456e48e326c13dc29df20",
      "function": "safeMint(address)",
      "arguments": [
        "0x1279874A02eEBA3fBEAe83BA7fbe3f3Aa60bfF3e"
      ],
      "transaction": {
        "from": "0x1279874a02eeba3fbeae83ba7fbe3f3aa60bff3e",
        "to": "0x7adf37689219d7648f3456e48e326c13dc29df20",
        "gas": "0x3037b",
        "value": "0x0",
        "input": "0x40d097c30000000000000000000000001279874a02eeba3fbeae83ba7fbe3f3aa60bff3e",
        "nonce": "0xa5",
        "chainId": "0x66eee"
      },
      "additionalContracts": [],
      "isFixedGasLimit": false
    }
  ],
  "receipts": [
    {
      "status": "0x1",
      "cumulativeGasUsed": "0x1054f8",
      "logs": [
        {
          "address": "0x7adf37689219d7648f3456e48e326c13dc29df20",
          "topics": [
            "0xddf252ad1be2c89b69c2b068fc378daa952ba7f163c4a11628f55a4df523b3ef",
            "0x0000000000000000000000000000000000000000000000000000000000000000",
            "0x0000000000000000000000001279874a02eeba3fbeae83ba7fbe3f3aa60bff3e",
            "0x0000000000000000000000000000000000000000000000000000000000000001"
          ],
          "data": "0x",
          "blockHash": "0x9fb5d73f2c3192e7a2af7cf7a414c1dba5016e259b9f29bf0b17630103a7bb9a",
          "blockNumber": "0x4fee105",
          "transactionHash": "0x794702fef149af8a3a9861c7b07e1b14b50c571610c7dc1d7dc04a22d10d5b8f",
          "transactionIndex": "0x2",
          "logIndex": "0x1",
          "removed": false
        },
        {
          "address": "0x7adf37689219d7648f3456e48e326c13dc29df20",
          "topics": [
            "0xf8e1a15aba9398e019f0b49df1a4fde98ee17ae345cb5f6b5e2c27f5033e8ce7"
          ],
          "data": "0x0000000000000000000000000000000000000000000000000000000000000001",
          "blockHash": "0x9fb5d73f2c3192e7a2af7cf7a414c1dba5016e259b9f29bf0b17630103a7bb9a",
          "blockNumber": "0x4fee105",
          "transactionHash": "0x794702fef149af8a3a9861c7b07e1b14b50c571610c7dc1d7dc04a22d10d5b8f",
          "transactionIndex": "0x2",
          "logIndex": "0x2",
          "removed": false
        }
      ],
      "logsBloom": "0x00000000000000000000000000000000000000000000000000000000000000000000000000000000000000000000000000000000000000000000000000040000000000000000000000000008000000000000000000040000000000000000000000000000020000000000000000000800040000000000000000000010000000000000000000000000000000000000000000000000000000000000000000000000000000000000000000000000000000002000200000000000000000000000008000000102000000000000000000000000000000000000200100000000000060000000000000000000200000000000000000000000000000000000000000020000",
      "type": "0x2",
      "transactionHash": "0x794702fef149af8a3a9861c7b07e1b14b50c571610c7dc1d7dc04a22d10d5b8f",
      "transactionIndex": "0x2",
      "blockHash": "0x9fb5d73f2c3192e7a2af7cf7a414c1dba5016e259b9f29bf0b17630103a7bb9a",
      "blockNumber": "0x4fee105",
      "gasUsed": "0x247a2",
      "effectiveGasPrice": "0x5f5e100",
      "from": "0x1279874a02eeba3fbeae83ba7fbe3f3aa60bff3e",
      "to": "0x7adf37689219d7648f3456e48e326c13dc29df20",
      "contractAddress": null,
      "gasUsedForL1": "0x105b",
      "l1BlockNumber": "0x670d35"
    }
  ],
  "libraries": [],
  "pending": [],
  "returns": {},
  "timestamp": 1727217578,
  "chain": 421614,
  "commit": "8ae2dc4"
}