{
  "transactions": [
    {
      "hash": "0x97c4e2514118dfb87d2962e314e74282c18a1efcaa37bee48eee4771b847ad6d",
      "transactionType": "CALL",
      "contractName": null,
      "contractAddress": "0x935823a204874da68023f073d61bcd759ff267af",
      "function": "safeMint(address)",
      "arguments": [
        "0x1279874A02eEBA3fBEAe83BA7fbe3f3Aa60bfF3e"
      ],
      "transaction": {
        "from": "0x1279874a02eeba3fbeae83ba7fbe3f3aa60bff3e",
        "to": "0x935823a204874da68023f073d61bcd759ff267af",
        "gas": "0x37b29",
        "value": "0x0",
        "input": "0x40d097c30000000000000000000000001279874a02eeba3fbeae83ba7fbe3f3aa60bff3e",
        "nonce": "0xa7",
        "chainId": "0x66eee"
      },
      "additionalContracts": [],
      "isFixedGasLimit": false
    }
  ],
  "receipts": [
    {
      "status": "0x1",
      "cumulativeGasUsed": "0x29e62",
      "logs": [
        {
          "address": "0x935823a204874da68023f073d61bcd759ff267af",
          "topics": [
            "0xddf252ad1be2c89b69c2b068fc378daa952ba7f163c4a11628f55a4df523b3ef",
            "0x0000000000000000000000000000000000000000000000000000000000000000",
            "0x0000000000000000000000001279874a02eeba3fbeae83ba7fbe3f3aa60bff3e",
            "0x0000000000000000000000000000000000000000000000000000000000000001"
          ],
          "data": "0x",
          "blockHash": "0xa22f676def55c3022595fdc999320962bd4e02cbada75f88f07a7616df32d7a0",
          "blockNumber": "0x4fee43c",
          "transactionHash": "0x97c4e2514118dfb87d2962e314e74282c18a1efcaa37bee48eee4771b847ad6d",
          "transactionIndex": "0x1",
          "logIndex": "0x0",
          "removed": false
        },
        {
          "address": "0x935823a204874da68023f073d61bcd759ff267af",
          "topics": [
            "0xf8e1a15aba9398e019f0b49df1a4fde98ee17ae345cb5f6b5e2c27f5033e8ce7"
          ],
          "data": "0x0000000000000000000000000000000000000000000000000000000000000001",
          "blockHash": "0xa22f676def55c3022595fdc999320962bd4e02cbada75f88f07a7616df32d7a0",
          "blockNumber": "0x4fee43c",
          "transactionHash": "0x97c4e2514118dfb87d2962e314e74282c18a1efcaa37bee48eee4771b847ad6d",
          "transactionIndex": "0x1",
          "logIndex": "0x1",
          "removed": false
        }
      ],
      "logsBloom": "0x00000000000000000000000000000000000000000000000000000000000000000000000000000000000000000000000000000000000000000000000000040000000000000000000000000008000000000000000000040000000000000000000000000000020000000000000000000800040000200000000000000010000000000000000000000000000000000000000000000000000000000000000000000000000000001000000000000000000000002000200000000000000000000000008000000002000000000000000000000000000000000000200000000000000060000000000000000000200000000000000000000000080000000000000000000000",
      "type": "0x2",
      "transactionHash": "0x97c4e2514118dfb87d2962e314e74282c18a1efcaa37bee48eee4771b847ad6d",
      "transactionIndex": "0x1",
      "blockHash": "0xa22f676def55c3022595fdc999320962bd4e02cbada75f88f07a7616df32d7a0",
      "blockNumber": "0x4fee43c",
      "gasUsed": "0x29e62",
      "effectiveGasPrice": "0x5f5e100",
      "from": "0x1279874a02eeba3fbeae83ba7fbe3f3aa60bff3e",
      "to": "0x935823a204874da68023f073d61bcd759ff267af",
      "contractAddress": null,
      "gasUsedForL1": "0x105b",
      "l1BlockNumber": "0x670d44"
    }
  ],
  "libraries": [],
  "pending": [],
  "returns": {},
  "timestamp": 1727217812,
  "chain": 421614,
  "commit": "8ae2dc4"
}